{
  "_format": "hh-sol-artifact-1",
  "contractName": "DailyPlanner",
  "sourceName": "contracts/DailyPlanner.sol",
  "abi": [
    {
      "anonymous": false,
      "inputs": [
        {
          "indexed": true,
          "internalType": "address",
          "name": "user",
          "type": "address"
        },
        {
          "indexed": false,
          "internalType": "uint256",
          "name": "taskIndex",
          "type": "uint256"
        },
        {
          "indexed": false,
          "internalType": "string",
          "name": "task",
          "type": "string"
        },
        {
          "indexed": false,
          "internalType": "uint256",
          "name": "deadline",
          "type": "uint256"
        }
      ],
      "name": "TaskAdded",
      "type": "event"
    },
    {
      "anonymous": false,
      "inputs": [
        {
          "indexed": true,
          "internalType": "address",
          "name": "user",
          "type": "address"
        },
        {
          "indexed": false,
          "internalType": "uint256",
          "name": "taskIndex",
          "type": "uint256"
        },
        {
          "indexed": false,
          "internalType": "uint256",
          "name": "newDeadline",
          "type": "uint256"
        }
      ],
      "name": "TaskDeadlineUpdated",
      "type": "event"
    },
    {
      "anonymous": false,
      "inputs": [
        {
          "indexed": true,
          "internalType": "address",
          "name": "user",
          "type": "address"
        },
        {
          "indexed": false,
          "internalType": "uint256",
          "name": "taskIndex",
          "type": "uint256"
        },
        {
          "indexed": false,
          "internalType": "bool",
          "name": "isCompleted",
          "type": "bool"
        }
      ],
      "name": "TaskStatusUpdated",
      "type": "event"
    },
    {
      "inputs": [
        {
          "internalType": "string",
          "name": "_task",
          "type": "string"
        },
        {
          "internalType": "uint256",
          "name": "_deadline",
          "type": "uint256"
        }
      ],
      "name": "addTask",
      "outputs": [],
      "stateMutability": "nonpayable",
      "type": "function"
    },
    {
      "inputs": [],
      "name": "getTasks",
      "outputs": [
        {
          "components": [
            {
              "internalType": "string",
              "name": "task",
              "type": "string"
            },
            {
              "internalType": "uint256",
              "name": "deadline",
              "type": "uint256"
            },
            {
              "internalType": "bool",
              "name": "isCompleted",
              "type": "bool"
            },
            {
              "internalType": "bool",
              "name": "deadlineUpdated",
              "type": "bool"
            }
          ],
          "internalType": "struct DailyPlanner.Task[]",
          "name": "",
          "type": "tuple[]"
        }
      ],
      "stateMutability": "view",
      "type": "function"
    },
    {
      "inputs": [
        {
          "internalType": "uint256",
          "name": "_taskIndex",
          "type": "uint256"
        },
        {
          "internalType": "uint256",
          "name": "_newDeadline",
          "type": "uint256"
        }
      ],
      "name": "updateTaskDeadline",
      "outputs": [],
      "stateMutability": "nonpayable",
      "type": "function"
    },
    {
      "inputs": [
        {
          "internalType": "uint256",
          "name": "_taskIndex",
          "type": "uint256"
        },
        {
          "internalType": "bool",
          "name": "_isCompleted",
          "type": "bool"
        }
      ],
      "name": "updateTaskStatus",
      "outputs": [],
      "stateMutability": "nonpayable",
      "type": "function"
    }
  ],
  "bytecode": "0x608060405234801561001057600080fd5b5061122a806100206000396000f3fe608060405234801561001057600080fd5b506004361061004c5760003560e01c806304a87e38146100515780633143d0821461006f57806376d56b351461008b5780638b3f236d146100a7575b600080fd5b6100596100c3565b604051610066919061097a565b60405180910390f35b61008960048036038101906100849190610b11565b610230565b005b6100a560048036038101906100a09190610b6d565b61040d565b005b6100c160048036038101906100bc9190610bd9565b610673565b005b60606000803373ffffffffffffffffffffffffffffffffffffffff1673ffffffffffffffffffffffffffffffffffffffff168152602001908152602001600020805480602002602001604051908101604052809291908181526020016000905b82821015610227578382906000526020600020906003020160405180608001604052908160008201805461015690610c48565b80601f016020809104026020016040519081016040528092919081815260200182805461018290610c48565b80156101cf5780601f106101a4576101008083540402835291602001916101cf565b820191906000526020600020905b8154815290600101906020018083116101b257829003601f168201915b50505050508152602001600182015481526020016002820160009054906101000a900460ff161515151581526020016002820160019054906101000a900460ff16151515158152505081526020019060010190610123565b50505050905090565b6000825103610274576040517f08c379a000000000000000000000000000000000000000000000000000000000815260040161026b90610cd6565b60405180910390fd5b6000803373ffffffffffffffffffffffffffffffffffffffff1673ffffffffffffffffffffffffffffffffffffffff168152602001908152602001600020604051806080016040528084815260200183815260200160001515815260200160001515815250908060018154018082558091505060019003906000526020600020906003020160009091909190915060008201518160000190816103179190610ea2565b506020820151816001015560408201518160020160006101000a81548160ff02191690831515021790555060608201518160020160016101000a81548160ff0219169083151502179055505050600060016000803373ffffffffffffffffffffffffffffffffffffffff1673ffffffffffffffffffffffffffffffffffffffff168152602001908152602001600020805490506103b49190610fa3565b90503373ffffffffffffffffffffffffffffffffffffffff167fbf4e349ac20b43bf2c28eda8d8bbd49b62c4b73cf18f473109e74944013b84588285856040516104009392919061101f565b60405180910390a2505050565b6000803373ffffffffffffffffffffffffffffffffffffffff1673ffffffffffffffffffffffffffffffffffffffff168152602001908152602001600020805490508210610490576040517f08c379a0000000000000000000000000000000000000000000000000000000008152600401610487906110a9565b60405180910390fd5b6000803373ffffffffffffffffffffffffffffffffffffffff1673ffffffffffffffffffffffffffffffffffffffff16815260200190815260200160002082815481106104e0576104df6110c9565b5b906000526020600020906003020160020160019054906101000a900460ff161561053f576040517f08c379a000000000000000000000000000000000000000000000000000000000815260040161053690611144565b60405180910390fd5b806000803373ffffffffffffffffffffffffffffffffffffffff1673ffffffffffffffffffffffffffffffffffffffff16815260200190815260200160002083815481106105905761058f6110c9565b5b90600052602060002090600302016001018190555060016000803373ffffffffffffffffffffffffffffffffffffffff1673ffffffffffffffffffffffffffffffffffffffff16815260200190815260200160002083815481106105f7576105f66110c9565b5b906000526020600020906003020160020160016101000a81548160ff0219169083151502179055503373ffffffffffffffffffffffffffffffffffffffff167fc2f7feac9fa3db26c3ffd609cb78be11fd0272d000165d6819d273b1c62f6e698383604051610667929190611164565b60405180910390a25050565b6000803373ffffffffffffffffffffffffffffffffffffffff1673ffffffffffffffffffffffffffffffffffffffff1681526020019081526020016000208054905082106106c4576106c361118d565b5b806000803373ffffffffffffffffffffffffffffffffffffffff1673ffffffffffffffffffffffffffffffffffffffff1681526020019081526020016000208381548110610715576107146110c9565b5b906000526020600020906003020160020160006101000a81548160ff0219169083151502179055503373ffffffffffffffffffffffffffffffffffffffff167f2f07dc4f475826df8599e41d4d3c3164a1cc323e9e1ee47693a107ffb72b3c8d83836040516107859291906111cb565b60405180910390a25050565b600081519050919050565b600082825260208201905092915050565b6000819050602082019050919050565b600081519050919050565b600082825260208201905092915050565b60005b838110156107f75780820151818401526020810190506107dc565b60008484015250505050565b6000601f19601f8301169050919050565b600061081f826107bd565b61082981856107c8565b93506108398185602086016107d9565b61084281610803565b840191505092915050565b6000819050919050565b6108608161084d565b82525050565b60008115159050919050565b61087b81610866565b82525050565b6000608083016000830151848203600086015261089e8282610814565b91505060208301516108b36020860182610857565b5060408301516108c66040860182610872565b5060608301516108d96060860182610872565b508091505092915050565b60006108f08383610881565b905092915050565b6000602082019050919050565b600061091082610791565b61091a818561079c565b93508360208202850161092c856107ad565b8060005b85811015610968578484038952815161094985826108e4565b9450610954836108f8565b925060208a01995050600181019050610930565b50829750879550505050505092915050565b600060208201905081810360008301526109948184610905565b905092915050565b6000604051905090565b600080fd5b600080fd5b600080fd5b600080fd5b7f4e487b7100000000000000000000000000000000000000000000000000000000600052604160045260246000fd5b6109f282610803565b810181811067ffffffffffffffff82111715610a1157610a106109ba565b5b80604052505050565b6000610a2461099c565b9050610a3082826109e9565b919050565b600067ffffffffffffffff821115610a5057610a4f6109ba565b5b610a5982610803565b9050602081019050919050565b82818337600083830152505050565b6000610a88610a8384610a35565b610a1a565b905082815260208101848484011115610aa457610aa36109b5565b5b610aaf848285610a66565b509392505050565b600082601f830112610acc57610acb6109b0565b5b8135610adc848260208601610a75565b91505092915050565b610aee8161084d565b8114610af957600080fd5b50565b600081359050610b0b81610ae5565b92915050565b60008060408385031215610b2857610b276109a6565b5b600083013567ffffffffffffffff811115610b4657610b456109ab565b5b610b5285828601610ab7565b9250506020610b6385828601610afc565b9150509250929050565b60008060408385031215610b8457610b836109a6565b5b6000610b9285828601610afc565b9250506020610ba385828601610afc565b9150509250929050565b610bb681610866565b8114610bc157600080fd5b50565b600081359050610bd381610bad565b92915050565b60008060408385031215610bf057610bef6109a6565b5b6000610bfe85828601610afc565b9250506020610c0f85828601610bc4565b9150509250929050565b7f4e487b7100000000000000000000000000000000000000000000000000000000600052602260045260246000fd5b60006002820490506001821680610c6057607f821691505b602082108103610c7357610c72610c19565b5b50919050565b600082825260208201905092915050565b7f7461736b206465736372697074696f6e2063616e6e6f7420626520656d707479600082015250565b6000610cc0602083610c79565b9150610ccb82610c8a565b602082019050919050565b60006020820190508181036000830152610cef81610cb3565b9050919050565b60008190508160005260206000209050919050565b60006020601f8301049050919050565b600082821b905092915050565b600060088302610d587fffffffffffffffffffffffffffffffffffffffffffffffffffffffffffffffff82610d1b565b610d628683610d1b565b95508019841693508086168417925050509392505050565b6000819050919050565b6000610d9f610d9a610d958461084d565b610d7a565b61084d565b9050919050565b6000819050919050565b610db983610d84565b610dcd610dc582610da6565b848454610d28565b825550505050565b600090565b610de2610dd5565b610ded818484610db0565b505050565b5b81811015610e1157610e06600082610dda565b600181019050610df3565b5050565b601f821115610e5657610e2781610cf6565b610e3084610d0b565b81016020851015610e3f578190505b610e53610e4b85610d0b565b830182610df2565b50505b505050565b600082821c905092915050565b6000610e7960001984600802610e5b565b1980831691505092915050565b6000610e928383610e68565b9150826002028217905092915050565b610eab826107bd565b67ffffffffffffffff811115610ec457610ec36109ba565b5b610ece8254610c48565b610ed9828285610e15565b600060209050601f831160018114610f0c5760008415610efa578287015190505b610f048582610e86565b865550610f6c565b601f198416610f1a86610cf6565b60005b82811015610f4257848901518255600182019150602085019450602081019050610f1d565b86831015610f5f5784890151610f5b601f891682610e68565b8355505b6001600288020188555050505b505050505050565b7f4e487b7100000000000000000000000000000000000000000000000000000000600052601160045260246000fd5b6000610fae8261084d565b9150610fb98361084d565b9250828203905081811115610fd157610fd0610f74565b5b92915050565b610fe08161084d565b82525050565b6000610ff1826107bd565b610ffb8185610c79565b935061100b8185602086016107d9565b61101481610803565b840191505092915050565b60006060820190506110346000830186610fd7565b81810360208301526110468185610fe6565b90506110556040830184610fd7565b949350505050565b7f5461736b20696e646578206f7574206f6620626f756e64730000000000000000600082015250565b6000611093601883610c79565b915061109e8261105d565b602082019050919050565b600060208201905081810360008301526110c281611086565b9050919050565b7f4e487b7100000000000000000000000000000000000000000000000000000000600052603260045260246000fd5b7f446561646c696e6520616c72656164792075706461746564206f6e6365000000600082015250565b600061112e601d83610c79565b9150611139826110f8565b602082019050919050565b6000602082019050818103600083015261115d81611121565b9050919050565b60006040820190506111796000830185610fd7565b6111866020830184610fd7565b9392505050565b7f4e487b7100000000000000000000000000000000000000000000000000000000600052600160045260246000fd5b6111c581610866565b82525050565b60006040820190506111e06000830185610fd7565b6111ed60208301846111bc565b939250505056fea2646970667358221220f1d8032c666fd9658b33916b1beb423db000b5d14e58c3e660fa5a6e32205d9664736f6c63430008110033",
  "linkReferences": {},
  "deployedLinkReferences": {}
}